:020000040800F2
:1000000038FE01205D0200084557010899490108A2
:10001000AD560108310D0108C5B10108000000000E
:100020000000000000000000000000009D0100082A
:10003000150F010800000000F9010008156D010806
:1000400077020008770200087702000877020008AC
:10005000770200087702000877020008770200089C
:10006000770200087702000877020008770200088C
:10007000770200087702000877020008770200087C
:10008000770200087702000877020008770200086C
:10009000770200087702000877020008770200085C
:1000A000770200087702000877020008770200084C
:1000B000770200087702000877020008770200083C
:1000C000770200087702000877020008770200082C
:1000D000770200087702000877020008770200081C
:1000E000770200087702000877020008770200080C
:1000F00077020008770200087702000877020008FC
:10010000770200081D5801087702000877020008EE
:1001100077020008770200087702000877020008DB
:100120007702000877020008770200088D0D0108A9
:1001300077020008770200087702000877020008BB
:100140007702000877020008770200084957010883
:10015000770200089D0D0108770200087702000869
:10016000770200087702000877020008770200088B
:1001700077020008770200087702000800000000FC
:10018000CD3A010877020008DFF80CD000F0DAFB66
:10019000004800471934020838FE01202C4B19682A
:1001A0000868B0E8F04F80F30988BFF36F8F4FF015
:1001B000000080F3118870470000000008480068C4
:1001C000006880F308884FF0000080F3148862B65E
:1001D00061B6BFF34F8FBFF36F8F00DF00BF00BF6B
:1001E00008ED00E0DFF80C00016841F470010160E7
:1001F000704700BF88ED00E0EFF30980BFF36F8F19
:10020000134B1A681EF0100F08BF20ED108A20E96A
:10021000F04F106009B44FF0500080F31188BFF325
:100220004F8FBFF36F8F31F03BFE4FF0000080F334
:10023000118809BC19680868B0E8F04F1EF0100F6B
:1002400008BFB0EC108A80F30988BFF36F8F704746
:1002500058000020EFF305807047000006488047F3
:1002600006480047FEE7FEE7FEE7FEE7FEE7FEE79B
:10027000FEE7FEE7FEE7FEE7DD6D01088901000805
:100280002DE9F05F0546002092469B4688460646CB
:10029000814640241BE0284641464746224600F05E
:1002A000BBFA53465A46C01A914110D3114618461C
:1002B000224600F0A2FA2D1A67EB01084F462246AB
:1002C0000120002100F099FA17EB00094E41201E91
:1002D000A4F10104DFDC484631462A464346BDE826
:1002E000F09F10B5441A0346944209D28418114471
:1002F00003E011F8013D04F8013D521EF9D210BD92
:1003000040EA0104A40703D009E010C9121F10C37A
:10031000042AFAD203E011F8014B03F8014B521EF4
:10032000F9D210BDD2B201E000F8012B491EFBD278
:1003300070470022F6E710B513460A4604461946F0
:10034000FFF7F0FF204610BD421C10F8011B0029EA
:10035000FBD1801A704710B5002200E0521C835C6C
:100360008C5CA34201D1002BF8D1D8B2E1B2401A83
:1003700010BD30B504460020034600E05B1C9342EC
:1003800003D2E05CCD5C401BF8D030BD034611F8D1
:10039000012B00F8012B002AF9D1184670472DE9EE
:1003A000FE4F804681EA0300C00F0C46009021F00A
:1003B000004123F00045B8EB0200A94105D24046B8
:1003C000214690461C460B46024623F0004010434F
:1003D00047D0270DC7F30A00C3F30A510290401A11
:1003E000019040286BDAC3F3130040F4801B00989F
:1003F000924620B10023D2EB030A63EB0B0B01986A
:100400005946C0F14002504600F0F7F906460D4645
:1004100050465946019A00F00FFA10EB080061416E
:10042000002487EA115284EAE7731A4340D0009A05
:1004300062B3019A012A4FEA075215DC001B61EBF7
:1004400002014FF0004202EA0752CDE90042001CCF
:1004500041F5801132462B4600F00FFA03B0BDE89B
:10046000F08F40462146F9E7001B61EB0201001CBA
:1004700041F5801300185B412018A2F5001747EBE7
:10048000030140EAD570B6196D4111E06D084FEADD
:10049000360645EAC0754FEA0752001B61EB0201C0
:1004A000001C41F5801149084FEA30000019514104
:1004B00032462B4603B0BDE8F04F00F0CFB90098AC
:1004C000012240000023D0EB020263EBE0730098AE
:1004D00021464FEAE074B8EB000061EB0401E9E764
:1004E00083F000435BE781F0004158E72DE9FE4FC0
:1004F00081EA030404F0004421F0004100944FF02D
:10050000000B23F0004350EA01045ED052EA0304DA
:100510005BD0C3F30A54C1F30A552C44A4F2F3345C
:100520000194A0FB0254C1F3130141F48011C3F301
:10053000130343F4801301FB024400FB034E840ABF
:10054000970A44EA815447EA8357A4FB0768029557
:100550008D0A05FB07854FEA932C04FB0C542705F5
:10056000029D4FEA065847EA1637B5EB08056EEBD1
:10057000070C870E920E47EA811742EA8312A7FB07
:100580000201B6EB0B0164EB00042B0D43EA0C33C4
:100590005E1844EB1C50DA465146E7FB0201C5F3F6
:1005A00013044FEA0B3343EA14534FEA0432019C1D
:1005B00043EA0603A4F10C040294009CCDE900B4C4
:1005C00000F05BF903B0BDE8F08F00200146F9E7C9
:1005D0002DE9F04D81EA030404F0004B21F00045C1
:1005E00014464FF0000A23F0004150EA050220D0E3
:1005F00054EA01021DD0C5F30A570246C5F313039E
:10060000C1F31300C1F30A5640F4801543F480137C
:10061000A7EB0608101BD64608F2FD3873EB050061
:1006200002D308F1010801E092185B41B8F1000F14
:1006300003DA00200146BDE8F08D00204FF4801160
:10064000064684460EE0171B73EB050705D3121B05
:1006500063EB050306434CEA010C49084FEA3000FE
:1006600092185B4150EA0107EDD152EA030012D023
:1006700082EA040083EA0501084305D0101BAB4160
:1006800006D20122002306E000224FF0004302E0E0
:100690006FF0010253101AEB06004CEB085110EBFF
:1006A0000A0041EB0B01BDE8F04D00F0D7B80EB5E4
:1006B000C10F80EAE0700844CA07002140F23343CA
:1006C0008DE80E000A460B4600F0D7F803B000BDD7
:1006D0000EB540F2334102910021CDE900110A46E6
:1006E0000B4600F0CAF803B000BD70B5C1F30A5262
:1006F00001F000450024C1F3130140F2FF3341F43F
:1007000080119A4201DA002070BD40F233439A42D0
:10071000A2F2334203DC524200F07EF800E0904047
:100720002C43F1D0404270BDC1F30A5210B5C1F361
:10073000130140F2FF3341F480119A4201DA0020A4
:1007400010BD40F233439A42A2F2334203DC5242DC
:1007500000F062F810BD904010BD000030B5041EDE
:1007600071F1000404DB4FF00044404264EB0101EE
:10077000141E73F1000405DB1C464FF00043524287
:1007800063EB04038B4208BF824230BD30B5041EC8
:1007900071F1000404DB4FF00044404264EB0101BE
:1007A000141E73F1000405DB1C464FF00043524257
:1007B00063EB0403994208BF904230BDA0E8004FAC
:1007C000F0C040F804DB01B5AFF30080BDE80240A3
:1007D00001C10020704700F12C080C4658F8040DA8
:1007E000AFF3008058F8040D8546200008BF0120B3
:1007F00038E9F00018E9004F7047202A04DB203A5E
:1008000000FA02F1002070479140C2F1200320FA63
:1008100003F3194390407047202A04DB203A21FA61
:1008200002F00021704721FA02F3D040C2F1200209
:100830009140084319467047202A06DBCB17203A1F
:1008400041FA02F043EAE07306E041FA02F3D040D5
:10085000C2F12002914008431946704710B5141E9A
:1008600073F1000408DA401C41F1000192185B4169
:100870001A4301D120F0010010BD2DE9F04D924640
:100880009B4611B1B1FA81F202E0B0FA80F2203257
:100890009046FFF7B2FF04460F4640EA0A0041EADD
:1008A0000B0153465A46084313D0114653EA010040
:1008B00019D0C8F140025046FFF7AEFF05460E467C
:1008C000504659464246FFF798FF084305D001209D
:1008D00004E020463946BDE8F08D0020054346EA95
:1008E000E0762C4337430A986305E40AA0EB08003E
:1008F0000022FD0A44EA47540A3002D5002001468E
:10090000E9E7010510196941DDE908450019694168
:10091000BDE8F04DA2E770B521F0004303430CD0D1
:10092000C1F30A550024D5EB040564EB0403D61784
:10093000AD1AB34102DB0020014670BD201841EB27
:10094000025170BD064C074D06E0E06840F001031F
:1009500094E8070098471034AC42F6D3FFF718FC30
:1009600010E1060850E106082DE9F04D00231A4673
:100970001B1A8A4103DB00200146BDE8F08DC1F35C
:100980000A52C1F3130141F480154FF0000BD10757
:1009900002D100186D41521E0027044640F2FF119B
:1009A000384601EB620A3E468046024600204FF47C
:1009B0008011FFF731FFC2197141BB1846EB0100EE
:1009C000B4EB030C75EB000C04D3E41A65EB0005E3
:1009D00017460E46241908F101006D41804634285F
:1009E000E3DDF91946EB0600091BA84103D24FF0DD
:1009F000FF32134601E0002213461BEB070046EBD3
:100A00000A51BDE8F04DFFF729BF70B58D1810F8F9
:100A1000014B14F0030201D110F8012B231106D170
:100A200010F8013B03E010F8016B01F8016B521E56
:100A3000F9D1ABB110F8012B04F00C048A1A0C2C7C
:100A400003D0A2EB84129B1C08E010F8014BA2EB30
:100A50000422F8E712F8014B01F8014B5B1EF9D5AF
:100A6000A942D4D3002070BD37B54468054601467D
:100A7000204608F085FC00285CD02B680F2B16D090
:100A800004DC0B2B22D00E2B32D050E0282B47D089
:100A9000B3F5107F05D0112B49D1274B1B6813B933
:100AA00048E0264B1B6829462046984742E02046EE
:100AB00001F032FF02AB43F8040D426E1568184690
:100AC00001F09CFFB5B32046A84733E0204601F073
:100AD00023FF02AC0190683001F080FE54F8040D51
:100AE00003216C3001F087FE204601F087FF1EE0F5
:100AF000EA680CCA0D2A02D0202A06D010E0002B8A
:100B00000EDD20460EF003FB05E0002B03DD204642
:100B10000EF0FDFA0EE0022120460EF010FB09E077
:100B2000EB6823B94FF48071204608F00FFC28468B
:100B300008F028FF03B030BD8CDE0120B0CD0120CD
:100B400010B586B0002404940B9C03940A9C029474
:100B5000099C0194089C009400F026F806B010BD92
:100B6000F0B5B0F90C50B0F91070B0F90E60044651
:100B700087B01D44A369B0F90A000493B4F90830A2
:100B80000393638A029300238DE80A0010443B46D6
:100B90003246294600F008F86168054600F0BAF9C7
:100BA000284607B0F0BD00002DE9F04186B0984618
:100BB00005460E46174603F00FF8109C1A4B029399
:100BC0000D9B01934C340C9B0093039443463A468F
:100BD0003146284608F012FE8046F8B101F09CFE2E
:100BE000124E0F9905901022351D08F05BFD06AFDF
:100BF0000FCD57F804ED0EF134040FC40FCD0FC420
:100C000095E80F0084E80F00736BCEF86430384627
:100C100001F0F4FE736B40465B68984706F0DAF823
:100C2000404606B0BDE8F081690A0008B0CD012059
:100C30002DE9F0418B4B826853F822504368052B15
:100C400088B004460ED006DC002B40F00781006817
:100C500009F0E0FE02E1062B00F08980122B00F083
:100C6000AA80FBE0EE69002E51D0AB6803936B685D
:100C700002932B680193009610300FC806F0A4FD74
:100C8000002655F8260005F0C4FAEB69A26921692F
:100C90006069D21A1944304402F046FBEB69A2693C
:100CA0002169E069D21A1944801B02F03DFBEB690F
:100CB000E26961692069D21A1944304402F050FD9A
:100CC000EB69E2696169A069D21A801B1944013697
:100CD00002F046FD022ED4D1A86805F09AFAE9691F
:100CE00020696669E36942185B1A013A31440230AF
:100CF00002F088FDE969A2696669E369501A5B1A26
:100D0000023A3144013002F07DFDEE690FE055F802
:100D1000260005F07EFA04F110000FC89B1B921B01
:100D200031443044013602F055FB022EEFD16169A7
:100D3000E3692F69A26920690197EF6800970B4466
:100D4000921B30445B10023102F0B4FA04F114013A
:100D50000EC92069AC69019419446C69009449106A
:100D6000023B921B0131304402F0A4FA76E00068A5
:100D700001F0D2FD049020680AF052FA049B30B1D1
:100D8000A26852B91A6F003218BF012206E05A6FEA
:100D9000002A0CBF0022022200E0002203EB8203A3
:100DA00004A8DD6E01F02AFE00231A4621682846B9
:100DB00002F000F852E0006801F0AEFD08AED0F895
:100DC000688046F8100DB8F1000F44D0A368B0F960
:100DD0005C7023B1032B0CBF0223002300E001232E
:100DE00000EB8303406D1C6C05F042FA204605F0D1
:100DF00010FA06A802F0C6FDA98BBDF81C30BDF89C
:100E000018205B1AADF81C30BDF81A300233ADF86B
:100E10001A30BDF81E30023BADF81E30049B0A4468
:100E2000ADF81820B3F95E10B3F9602006A803F0FE
:100E3000F2FF304601F0E2FD022005F085FA40465F
:100E400001F06AFD08AC3A4644F80C0D06A902F020
:100E5000A5F8204600E0304601F0D0FD002008B0A3
:100E6000BDE8F081ACB8060813B5044678B102F0CD
:100E7000B3FE204601F050FD02AB448E43F8040D52
:100E80001846C4F3002401F0B9FD05F0A3FF204685
:100E900002B010BD034B044A1A60044B5A6A5862F0
:100EA00010467047E4CD0120FC000020B4CD0120A5
:100EB00037B50D46044680B102F08EFE204601F0A3
:100EC0002BFD02AB456543F8040D184601F096FD75
:100ED000204609F062FA05F07DFF03B030BD000046
:100EE00013B5044688B102F077FE204601F014FDE8
:100EF00002AB074A43F8040D4266184601F07EFD36
:100F0000204609F04AFA05F065FF02B010BD00BFA7
:100F1000A0B8060873B50D46044628B302F05CFE7F
:100F2000204601F0F9FC866E00906846019601F0BB
:100F300065FD294601A807F0CFF800280CBF012560
:100F400000250ED0019B9E4208D0204601F0E4FC13
:100F5000019B00908366684601F050FD204609F031
:100F60001CFA05F037FF00E00125284602B070BDED
:100F700073B50D461646044690B102F02DFE20468C
:100F800001F0CAFC022D01909CBF00EB85000664B5
:100F900001A801F033FD204609F0FFF905F01AFF22
:100FA00002B070BD2DE9FF470D460446002800F051
:100FB000E98002F011FE204601F0AEFC04AED0F84C
:100FC00058A046F80C0D90F85490D0F83480C76CB7
:100FD000304601F013FDBAF1000F03D02946204638
:100FE000D047CAE0122D00F0C48005DC102D3CD0A3
:100FF00009DC082D3BD057E01D2D43D01E2D3DD0E0
:10100000132D51D114E0B8F1000F00F0B680404626
:1010100001F082FC04AE3946054646F8040D05F0A1
:10102000C3FD0544284605F06DFD2B46012214E062
:10103000B8F1000F00F0A180404601F06DFC04AE55
:101040003946054646F8040D05F0AEFD0544284630
:1010500005F058FD2B464FF0FF32014620460AF0BE
:101060007FFD304601F0CAFC87E0791E82E0002F48
:1010700000F08380791E204600F0FDF920460AF03A
:10108000E7FF7AE0204601F047FCB9F1010F01903B
:1010900002D180F854A0E4E7012380F854303946A7
:1010A000204600F0E8F9DCE71F2D66DDB9F1000FFE
:1010B00002D020460AF0CCFF204601F02DFCB0F90A
:1010C00038300290002B804616DD406B60B101F095
:1010D00023FC0DF1100949F8040D06F05DFE0646EB
:1010E000484601F08BFC00E00646B8F9380086421D
:1010F000ACBF0026012600E001260DF1100858F8CB
:10110000083D4046D3F84C9001F078FCAEB3ADB248
:10111000284605F017FD8246014620460DF02EFFB9
:1011200058B3204601F0F8FB466B0290404601F0B0
:1011300065FC304601F0F0FB0DF11008494606460B
:1011400048F8040D05F030FD06443046FFF7FCF882
:101150003146421C06EB0A00FFF7C3F82946304629
:1011600005F0BEFC404601F049FC0521204609F08F
:10117000CCF9791C204600F07EF9204609F00DF9E3
:1011800005F028FE04B0BDE8F087000073B54468A0
:10119000054620460AF044F829460646204608F04F
:1011A000EFF800286BD02B680F2B3FD004DC0B2B03
:1011B00041D00E2B4CD05FE040F21312934203D08B
:1011C000B3F5107F21D057E0204609F095FA20466C
:1011D00001F0A2FB02AE46F8040D90F8563083F001
:1011E000040380F85630304601F008FC0021204608
:1011F0000EF082F9204601F08FFB00210190D0F81B
:10120000840009F046FA30461FE0EB684BB11A7AC9
:101210002AB11968204600F09FF8012102E002215E
:1012200000E00321204609F070F925E00121204665
:101230000EF062F923E0204601F06EFB02AC44F8A8
:10124000040D343001F0CAFA204601F0D7FB13E058
:1012500096B1EB685A68002A0EDD1968A1F10902FF
:10126000192A05D8012303FA02F2064B13401BB9D1
:101270002046FFF797FE02E0284608F083FB02B005
:1012800070BD00BF1300040310B586B000240594A0
:101290000C9C04940B9C03940A9C0294099C01945A
:1012A000089C009400F002F806B010BD2DE9F04350
:1012B00087B09046994605460F46129E02F08CFC78
:1012C000139C234B0293603403940F9C0E9B00935A
:1012D00044F48054424601944B463946284608F06F
:1012E0008DFA804600282DD001F016FB194D11997A
:1012F0000590102208F0D6F90FCD059F07F1600484
:101300000FC40FCD0FC42B682360012387F855301D
:10131000731C18BF0123002ECCBF36B2082687F8F5
:10132000883000237B877B633E8705A801F066FB3E
:10133000711C40460DF00EFC044618B9404608F0FA
:101340005DFBA04605F046FD404607B0BDE8F083D2
:101350008D110008080100202DE9F3410F460546D4
:10136000002853D002F038FC284601F0D5FA01904D
:10137000406B002845D001F0CFFA019B0090986E99
:1013800004F076FF0646284608F02AFD0446009839
:1013900002F04AFB019A136E03F00303012B80460F
:1013A00007D0022B0AD1221A013292FBF3F3FC1A66
:1013B0000AE0231A546E01341C1B04E0D36A546EF5
:1013C0001B6801341C443C1B009806F0E5FC002C13
:1013D000024601DA002108E0A04501DA014604E0F6
:1013E0002146009806F074FC0146284600F043F8B8
:1013F000684601F003FB304604F03AFF284608F047
:10140000CCFF01A801F0FAFA05F0E4FC02B0BDE857
:10141000F08173B50E46054680B102F0DDFB28462B
:1014200001F07AFA02AC866644F8040D284608F00A
:10143000B4FF204601F0E2FA05F0CCFC02B070BD2A
:1014400037B50D46044698B102F0C6FB204601F0C0
:1014500063FA02ABB5FA85F143F8040D490990F837
:10146000544080F85410184601F0C8FA05F0B2FC58
:10147000204603B030BD13B50C4601F04DFA009084
:10148000406BF0B101F048FA019006F085FC009B3A
:10149000B3F9382093F8541024EAE474002918BFF3
:1014A000013A9442A8BF1446A042DA6CA8BF204675
:1014B00082424FF0000218BFD8641A6501A801F0FB
:1014C0009DFA684601F09AFA02B010BD2DE9F04786
:1014D000446886B00546204601F01EFAC76D0090AC
:1014E000D0F888A0D0F88060D0F86880B0F87C9000
:1014F00007B13F68684601F081FABAF1000F09D0E0
:10150000DAF8043028469847002840F01A81DAF8C3
:1015100000A0F2E72B68172B00F0898018DC0F2B56
:1015200043D006DC0B2B00F0FA800D2B00F0BD80C1
:10153000FFE0112B1BD0142B40F0FB8001A92046AB
:1015400000F0A2FC02AB03CBEA6810605160F8E047
:10155000262B6FD005DC1E2B7AD0202B00F0B38019
:10156000E7E02A2B13D0B3F5107F24D0E1E020462A
:10157000EE6801F0D1F901903389012B02BFB0F878
:101580007C3043F48073A0F87C3001A8CFE0204683
:1015900001F0C2F9EB68009013B1C0F8843002E0AA
:1015A000D0F88430EB6068463EE0002F00F0C18048
:1015B0002046B847BDE02046D5F80C8001F0ACF9D4
:1015C00006AFB0F87C6047F8140D384601F016FA03
:1015D000EB68002B00F0B58098F80830CBB13307EA
:1015E00002D4204609F06EF9204608F0C7F806F448
:1015F0008873B3F5887F40F0A48006F080039BB227
:10160000002B40F09E8005224146204609F002F959
:1016100097E0204601F080F9B0F87C30019023F487
:101620008073A0F87C30384601F0E8F989E0C5F80D
:101630000C8086E0EB68022B40F0838006A90493BF
:10164000272341F8143DA868039409F0F5FF78E0DA
:10165000EF68012F24D1304608F00CFF58B1304616
:1016600009F030F9304608F0D1FD88B139463046EE
:1016700007F02BFF0CE0404609F078F906462046BB
:1016800001F04AF90090C0F88060684601F0B6F9B0
:101690000121204600F0E7FA002E52D1EE6050E022
:1016A0005146204600F0DFFA4BE019F0080F40D118
:1016B000EB68DB68002B3CD01B7A002B39D020462E
:1016C00009F000F935E0EE689EB32146706809F034
:1016D0008DFD80B1012120460EF066FF2146706825
:1016E00009F073FD28B3204601F016F906AB7268C5
:1016F00043F8140D0FE0514620460EF055FF2146E9
:10170000306809F062FDA0B1204601F005F906AB92
:10171000326843F8140DC0F88020184607E02046D0
:1017200001F0FAF80090703001F058F8684601F0C6
:1017300065F92946204607F023FE10B1284608F037
:1017400021F906B0BDE8F08710B588B000240694F2
:101750000F9C05940E9C04940D9C03940C9C029485
:101760000B9C01940A9C009400F024F808B010BD72
:10177000F0B5B0F90C50B0F91070B0F90E60044635
:1017800089B01D44A369B0F90A0006930E9B059326
:1017900063680493B4F908300393638A02930023C7
:1017A0008DE80A0010443B463246294600F002F814
:1017B00009B0F0BD2DE9F0478AB00E46DDF84C9037
:1017C00098460546174602F007FA189C394B0293D3
:1017D00049F4805301936034129B00933146039483
:1017E00043463A46284608F009F8064600285BD0EA
:1017F00001F092F8DFF8C4A0159904903022554604
:1018000007F050FF0DF128080FCD58F8187D07F1AB
:1018100034040FC40FCD0FC495E80300179B84E870
:1018200003007B66149BA7F87C300024DAF828308C
:10183000FB65C7F88040FC66C7F88840404601F069
:10184000DDF805A9304600F01FFBBDF91A10BDF9FF
:101850001800BDF91E30BDF91C200394164C0294EB
:101860005B1A121A41F2827401320194013300961C
:1018700007F0C4FFDAF8283004465B683046984722
:10188000304601F049F804908466404601F0B6F80D
:1018900042F2040309EA030313B9304608F040F9A1
:1018A0001699304600F05BFA05F094FA30460AB01B
:1018B000BDE8F087CD140008BD21000868CE0120E6
:1018C0002DE9F041044690B0006800F0B5F9A54B51
:1018D000666803F12C05002818BF1D461C2E00F277
:1018E000A281DFE816F08D01A001A001A001A001F6
:1018F0002701A001A001A001A001A0012700A001D3
:10190000A0017A01A001A001A0014101A001A00154
:1019100023001D001F002100A001A001A00125003F
:10192000EE6985E12E6A83E16E6A81E1AE6A7FE14C
:101930006E697DE11C2320680893079000F0ECFF9E
:10194000036D059007A89847064605A801F056F8CC
:10195000012E11DDAB6802936B6801932B68009335
:101960006269A1692069334605F074FE2769A3699D
:101970003744C6EB03082CE0286804F04AFC2169D0
:10198000EA6960690A44013A01F0CEFCA269E9699A
:101990006069511A013101F0C7FC6769206901379C
:1019A000394601F0EFFC3946A06901F0EBFC6868AC
:1019B00004F02FFC20693946013001F0E3FCA069F6
:1019C0003946013801F0DEFC2769A3690237A3F12B
:1019D0000208286804F01DFC42463946606901F09F
:1019E000A3FC686804F015FC606942463946013082
:1019F00001F09AFC6B6A022B0ADDA86804F009FC6E
:101A000061696B6A0B44013B4246023138461CE077
:101A10002A6A96421BDA67692369012E07F10208D8
:101A200040F303813744F0181A44013A3B464146DB
:101A300001F0E8FEA369E869012EA3EB0000CCBF2A
:101A40009A1B9A1E41463B46013001F0DBFE63695A
:101A5000E7692868012ECCBFF6189E1C013F04F0F0
:101A6000D8FB3A463146206901F07AFE3A463146C3
:101A7000A06901F075FEE769686804F0CAFB206997
:101A8000023F3A463146013001F06AFEA0693A460B
:101A90003146013801F064FEEB69022B02DC2B6A4F
:101AA000022B1FDDAB6AE769A868022BCCBFFF1AC7
:101AB000023F04F0AEFBEA69022A07DD2069024416
:101AC0003B46013A3146023001F09CFE2B6A022B64
:101AD00008DDA269E869101A3B46023A3146013036
:101AE00001F090FE286804F094FBA2692169E06986
:101AF00001F01AFC686804F08CFBA2692169E069B6
:101B0000013A0131013801F00FFCAE6A022E40F3B8
:101B10008A80A2692769E469A868A2F102080237ED
:101B200004F077FBA11BA31E42460131384601F0A9
:101B300069FE78E0B4F91000B4F91410B4F9182073
:101B4000B4F91C302C690194EC680094ADF81C00C9
:101B5000ADF81E10ADF82020ADF8223001F0AAFB40
:101B600061E000BFA8CE01206369298BADF81E306B
:101B7000A369226920685B1A0A44ADF82030E36942
:101B8000ADF82230ADF81C2000F0C6FE036F0590C2
:101B9000FBB1022004F0D8FB059AB2F87C30C3F305
:101BA000C0030E3302EB8303986804F032FB059BFD
:101BB000586B04F05DFB059B186F00F0ADFE059BB4
:101BC0000690B3F95A2007A901F0E8F906A800F039
:101BD00015FF05A800F012FF25E02369ADF81C30C1
:101BE0006369ADF81E30A369ADF82030A868E369D9
:101BF000ADF8223004F00DFB07A801F02DFE12E035
:101C0000206800F089FE10ABB0F85A2043F82C0D84
:101C100042F00C02A0F85A20184600F0EFFE2068AF
:101C200008F0F8FE04E0002602E0981C4746FBE6B8
:101C3000304610B0BDE8F08113B5044680B101F024
:101C4000CBFF204600F068FE02ABB0F87C4043F8C2
:101C5000040D1846C4F3C00400F0D0FE05F0BAF835
:101C6000204602B010BD38B50D46044648B101F01B
:101C7000B3FF294620460EF097FCBDE8384005F03A
:101C8000A9B838BD37B50C46054688B101F0A4FFA8
:101C9000284600F041FE836C0190A34203D0846487
:101CA000806E08F07AFB01A800F0A8FE05F092F81B
:101CB00003B030BD074B084A10B513601861074ADE
:101CC0000C3393E80300D469183282E803002046FD
:101CD00010BD00BF94CE012090CE012068CE01201F
:101CE000024BB3F92620D8841046704768CE0120F5
:101CF0002DE9FF4104460F4601F06EFF54B3204624
:101D000000F00AFEC36D03909D6800F033F90646AB
:101D100004A850F8043D5F6300F070FE2B680121B9
:101D2000204698472B6807460321204698472B6892
:101D300000218046204698470546204600F007FAD5
:101D40002046009543463A46314600F08BF920463E
:101D500008F023FB05F03EF804B0BDE8F08137B58C
:101D60000D460446E8B101F037FF204600F0D4FDEF
:101D7000036F00906846019300F040FE294601A8D9
:101D800006F0AAF958B1204600F0C6FD019B00906C
:101D90000367684600F032FE204608F0FEFA05F0C0
:101DA00019F803B030BD37B50D46044698B101F0BF
:101DB00013FF204600F0B0FDB0F95A300190AB425D
:101DC00004D0A0F85A50204608F0E7FA01A800F025
:101DD00015FE04F0FFFF03B030BD37B50D460446D5
:101DE00088B101F0F9FE204600F096FD02AB0564D3
:101DF00043F8040D4564184600F000FE204608F044
:101E0000CCFA04F0E7FF03B030BD2DE9F0430E46F5
:101E100085B0044698B301F0DFFE204600F07CFD5B
:101E2000B0F954500390B54223D000F0A3F8039BBF
:101E3000A3F85460DB6D9E68074633680121204695
:101E4000984733688046032120469847336800212D
:101E50008146204698470646204600F078F92046FD
:101E600000964B464246394600F0FCF8204608F002
:101E700094FA03A800F0C2FD04F0ACFF00E00546B0
:101E8000284605B0BDE8F0832DE9F04F87B006463F
:101E9000894600F041FDC26D0390946801212268DB
:101EA000304690472268032180463046904722689A
:101EB0000221834630469047226800218246304600
:101EC00090470090039809F01DF80546039809F023
:101ED00020F807460398448E04F02004A4B20CB105
:101EE000B0F9584000F046F803990246C86E18B1A0
:101EF000019207F091FF019ABDF80010A9F80020A7
:101F000092B21444013D0C44A9F80E10CBEB050B22
:101F1000013F01391144A9F802000FFA88F80FFABD
:101F20008BFB2044CAEB070AA9F80600A9F8121097
:101F3000A9F80480A9F808B0A9F80AA0A9F80C80AB
:101F4000A9F810B003A800F059FDB9F90C200492CB
:101F500006AAB9F9101042F8041D304604A900F091
:101F60003CF8049AA9F80C20059AA9F8102007B0AB
:101F7000BDE8F08F08B5438E03F020039BB2024604
:101F80003BB1B0F9540028B9506B01F083FD023029
:101F900008BD184608BD70B58AB006460C4600F06C
:101FA000BBFC0AABC26D43F8280D1846956800F0DB
:101FB00025FD0196032C0BD8DFE804F00204060887
:101FC000182304E0162302E0152300E017230293F0
:101FD0006B6801A898470AB070BD2DE9F7438146A8
:101FE0000D46164600F098FC034602A8DA6D40F84C
:101FF000083D9768B3F90040B3F9028000F0FEFC99
:102000003B680021484698470746484607F062FE6D
:10201000814620B3484600F07FFCB0F902300190C1
:10202000C8EB03039F4213D1836A1B0608D5B0F99E
:10203000003032681B1B93420ADC013B336007E02F
:10204000B0F904302A681B1B9342A4BF01332B60F4
:1020500001A800F0D3FC484607F079FED8E703B0AA
:10206000BDE8F0832DE9F04F85B093460C46054658
:102070009A4600F051FC04AFC36D47F8080D9E6806
:10208000FFF778FF8146384600F0B8FC336801213D
:1020900028469847336803210746284698473368FF
:1020A0008046002128469847A145034606D15F4552
:1020B00004D1D04502D10E9A904245D028460193D2
:1020C00007F008FE019B0E9A00269B1AC4EB090438
:1020D0000546B1460193CBEB0707C8EB0A089DB351
:1020E000284600F019FC836A039003F42073802BC8
:1020F00002D0B3F5007F1FD124B1224621462846E5
:1021000008F043FA039B9B6A1A0608D504FB198161
:10211000019A284608F0EAF909F1010AD146039B21
:102120009B6A9B0508D504FB0671019A284608F0B6
:10213000DDF906F1010A564603A800F05FFC2846C7
:1021400007F005FE0546CAE705B0BDE8F08F70B59B
:1021500086B0064600F0E0FB06AB846E43F8180D2F
:10216000C56E184600F04AFC04B92DB301A93046EB
:10217000FFF78AFEACB1BDF90A20BDF90810204670
:1021800008F084F9BDF90E30BDF90A20BDF9081038
:102190009A1ABDF90C30591A01320131204608F063
:1021A0005DFC4DB1BDF90A20BDF90630BDF908103E
:1021B000D21A284608F06AF906B070BD2DE9F0433E
:1021C000456887B00446284607F0CEFD814600F0FA
:1021D000A3FB034606A85F6E40F8143D9E6CD3F83F
:1021E000808000F00BFC2368172B52D009DC0F2BEA
:1021F00014D002DC0E2B33D045E0143B012B48D920
:1022000041E01F2B27D002DC1E2B19D03BE0222BF4
:1022100037D0312B37D10023E3603DE06FF07043BE
:102220009E4204D0304606F007FD00F069FC9FB3E3
:1022300094E80F0002AE86E80F000395304626E0D2
:10224000E3684BB3B8F1000F17D0454515D04046B1
:1022500008F038FB20E02146484607F091F81BE0E3
:10226000E3685A68002A0EDD1B68092B05D00A2B8B
:1022700009D1284608F0ACFB0EE0284608F076FBB2
:102280000AE0E66008E027B1C4F804902046B847A9
:1022900002E0204607F076FB07B0BDE8F0830000BF
:1022A0002DE9F041D0F80C8086B0044600200E469F
:1022B000174603F0D1FF0546B8F1000F05D098F896
:1022C000043013B140F0020001E025F0020003F0F9
:1022D000C3FF216969B101206388228803900290BD
:1022E000E0680190A06800900C6830463946A0472D
:1022F0001FE0DFF85080124BD8F800201B68527C9A
:10230000E06821469847E18820B9012904BFD8F840
:102310000030986B638822880590A0680490A0889C
:10232000029101210390019100913046394606F057
:1023300041F8284606B0BDE8F04103F08DBF00BF6C
:1023400080CD012090CD012008B50E4B186803F018
:1023500055FF0D4B186803F05CFF012003F0D6FF1A
:10236000002003F0E1FF002003F0EEFF002003F067
:1023700073FF064B186803F07BFF0020BDE80840A0
:1023800003F096BF8CCD012088CD012084CD0120A3
:102390004D4B2DE9F04F1A68D169CC69A38983426E
:1023A0008BB008D8E589854205D325680695C31A00
:1023B0004FF0FF3613E0A368002B7CD01D88A842A5
:1023C00079D35E88864276D35B6866680696401B42
:1023D00080B203EB800533F92030B5F90260099330
:1023E000581C68D091F818B0B2F92A90A17C364DEB
:1023F000B2F92270B2F9248094F810A01BFB01F30B
:102400004846079306F068FC2968079BCA69896BF0
:102410000591089006991846099B00FB031004904B
:10242000A37C039301230293D37E0193937E0093B5
:1024300052465B464146384605F0BCFF731C1AD035
:1024400049F0020006F048FC2A680699D369926BAD
:102450000592079A02FB06160496A27C03920122BB
:102460000292DA7E01929B7E009352465B46414681
:10247000384605F09FFF2B68DB695A7E1B7E9A4227
:1024800015D9B9F1020F12D089F0040006F024FC2E
:102490000D4B1B68DB69187ED97E9A7E5B7E00FB44
:1024A000018143440AFB0272384606F017F99DF891
:1024B000200006F011FC044B617C1A68538C0B441D
:1024C00053840BB0BDE8F08F90CD0120044B1B6806
:1024D000DB69DB6909B11A7C0A60587C704700BF70
:1024E00090CD012002230B807047C3699A898A42EC
:1024F00002D8DA898A420FD2986880B1038899425B
:102500000CD342888A4209D3C91A436833F82100A0
:10251000C043C0F3C03070470120704700207047AF
:102520002DE9F04F384C2368B3F92A80DB6989B074
:1025300006460146D86900F092F8002860D0058868
:102540004768751B07EBC506404696F802A006F0E3
:10255000C3FBD4F800C017F83520DCF81CE0DCF829
:1025600038309EF818B0BCF924108146BCF922001E
:102570000593736804934FF0010CCDF80CA0CDF8CF
:1025800008C09EF81BC0CDF804C09EF81AE0CDF834
:1025900000E05B4605F00EFF2368DB69597E93F887
:1025A00018A00791514520D9B8F1020F1DD093F81A
:1025B0001BB001F0EBF9804601F0B2F903F029FEFF
:1025C00023680799B3F924E0B3F92200DB6917F80F
:1025D0003550DA7E0BFB01E305FB02020BFB0AE13F
:1025E00006F07CF8404603F014FE484606F074FB03
:1025F00023687178DA69907E5A8C00FB01225A8434
:1026000009B0BDE8F08F00BF90CD012038B50D4B6B
:102610001B68DD6902460C460146E86900F01FF8B8
:1026200070B10388D21A436803EBC2014878A97ECF
:1026300010FB01F024B113F8323011FB03F32360D7
:1026400038BD00BF90CD012001230B80704708B535
:10265000C06900F004F8003018BF012008BD38B18F
:1026600003888B4202D843888B4201D28068F6E708
:10267000704700002DE9F047DFF86480DFF85890DC
:10268000DFF858A00025D8F800309D4217DAD9F8B5
:102690000070DAF800107C266E43BC19231D7422EA
:1026A0001846FDF71EFE0022BA5104F10C02A26189
:1026B00004F10802E063226460640135E3E70CF092
:1026C00083F9054B1A687C2303FB0020034B04307D
:1026D0001860BDE8F08700BF88BD012090CD0120C3
:1026E0003001002070B50E4E0E4B0F4D304640F8B5
:1026F0000C3F05F0DDFC2C687C235C43204600F099
:1027000087F80A4B306022461B68002198474FF03B
:10271000FF336B600EF0F2FDBDE870400CF054B971
:1027200088BD012089F2000830010020A8CD0120D9
:1027300010B5044638B101F04FFA204609F0CCF844
:10274000044604F047FB204610BD000073B5054663
:1027500001F042FA2846FFF7EBFF064660B100F0B1
:10276000DBF802AC074B44F8040D1B682A46002135
:102770009847204600F042F904F02CFB304602B0A6
:1027800070BD00BFA8CD0120024B21F003011860ED
:10279000596070475CDD012010B5044680B101F03E
:1027A0001BFA084B5B6B03EBC4035968486809F0DC
:1027B00041F820460DF0F6F8BDE8104004F00ABBE1
:1027C00010BD00BF50DF012028B1034BDA6B02605F
:1027D00002B15060D863704750DF012010B5044645
:1027E00001F0FAF92068FFF7D7FF00232360BDE866
:1027F000104004F0EFBA70B506460D460024AC4216
:1028000005DA06EB8400FFF7E9FF0134F7E770BD56
:102810002DE9F0410746264E03370CF065FA27F004
:102820000307306CF26B0437874238BF0746144603
:1028300034B154F8043C9F4223682CD01C46F7E77F
:10284000F368B26B02EB030858F8045CC5EB0805AB
:102850002B6833B120460DF029FE58F8045CC5EB17
:1028600008052B680BBB6B689F421EDC28461C1DAD
:102870000DF0FCFDF3686868DB1BF3607369E41B13
:102880003B44C01B2C44736102D0294608F0D2FFA0
:1028900044F8047C09E00BB161685960616801B1DA
:1028A0000B60A24201D12368F3632046BDE8F081AA
:1028B00050DF012008B50CF017FA0C4A00239918D4
:1028C000D1F8BC0010B1836800200BE0083B13F185
:1028D000800FF4D108E05A689B68904238BF1046D8
:1028E00013B19B68002BF6D10C3808BD50DF0120D6
:1028F00030B1044B5B6B03EBC000436858680C3885
:10290000704700BF50DF0120024A93690133936191
:10291000704700BF50DF0120054BDA690132DA61F0
:102920005A6B12F83030013302F8303000F07EB8C4
:1029300050DF012073B5044608460D46FFF7F8FE48
:10294000064618B314B32046FFF7D2FF8542A8BF4E
:10295000054601F041F93046FFF7DEFF00902046C2
:10296000FFF7DAFF2A4602AD0A4B0190014655F8FF
:10297000080D1B689847284600F040F801A800F0B1
:102980003DF82046FFF708FF04F024FA304602B075
:1029900070BD00BFA4CD012010B501F01DF9FFF7F7
:1029A00089FF0A4BB0F5800F8CBF1B6A1B6A4FF082
:1029B000640487BF90FBF4F003FB00F45843B0FBC2
:1029C000F4F404F007FA204610BD00BF50DF0120E8
:1029D0001028054A05D953685B08984228BF184655
:1029E00000E01020906070475CDD0120024A93698E
:1029F000013B9361704700BF50DF012030B5036891
:102A0000094953F8085C4C6B14F83530012B03D995
:102A1000CA690AB1013ACA61013B04F835300023A2
:102A20000360184630BD00BF50DF0120034B5B6BD5
:102A300003EBC00040680830704700BF50DF012042
:102A400050F8080C70470000F8B5144606460D46CD
:102A500001F0C2F8204600F0A5FF154F142348B13D
:102A600003FB047463689A685968AA1A711A03F020
:102A70000FFC18E003FB0473DA68B24202D11B6951
:102A8000AB4210D0142303FB0473586930B15B6868
:102A90009A685968AA1A711A03F022F9142303FBE1
:102AA0000474E6602561BDE8F84004F093B900BF06
:102AB00004DF0120C3B2CAB29A1A92B210B514B29E
:102AC000002CBCBF524214B2C0F30723C1F307224B
:102AD0009B1A9BB2090C1AB2C1EB1041002A89B2B1
:102AE00008B2BCBF5B421AB20028BCBF494208B260
:102AF000524304FB042280B200FB002010BD000002
:102B000010B50021084600F0D9FF044943F6FF73D1
:102B10001A460846BDE8104000F002B801C0FFFFA9
:102B20002DE9F34116461F4604460D4601F054F8C0
:102B3000042006F0D1F8144B1B69DA6C1B6D80463B
:102B400014441D4416441F446846ADF80040ADF8D7
:102B50000460ADF80250ADF8067008F0E1F938B93C
:102B6000404606F0B9F804F035F902B0BDE8F0814E
:102B70003B4632462946204605F0B0FD08F0D8F81D
:102B80000028F5D1ECE700BF80CD0120B0F9063078
:102B9000B0F90420B0F90210B0F90000FFF7C0BF8F
:102BA0002DE9F3470546884614461E4613B907F03B
:102BB00055F8064600940B9B2C680A9A3146284625
:102BC000A0470446002840D007F03BF8698A074632
:102BD000204606F07AFC204607F07CFF384607F0D6
:102BE00079FF4FF0000908F1FF38B8F1000F12DD4E
:102BF00055F81CAFCDF8009000231A4639462846F8
:102C0000D047824620B9204606F0F8FE50461DE027
:102C100007F060FFE7E71D21384607F0A0FD731CB1
:102C200013D000F0D9FF07F063F850B1FFF7FEFEB4
:102C30008069844207D00028F8D1204607F096FE2C
:102C400001E0A642F9D104F0C5F8204602B0BDE883
:102C5000F0870000012BF8B506460D4617461C46C6
:102C600001DD0020F8BD1C20FFF7D2FD0028F8D0C0
:102C70000DB1056109E0094B53F8241029B10B6827
:102C80000BB11946FBE70B69036100238360846184
:102C90008782C66003604360F8BD00BF1CE001206E
:102CA00038B51D46FFF7D6FF044648B100F00EF8D0
:102CB000E3681B6823B9034B16351B6843F82540AE
:102CC000204638BD90CD0120FFF77EBD30B508B954
:102CD000012030BD8469012CFADC1B4B1A78944228
:102CE000A4BF621C1A70194A52F8243015461BB949
:102CF00042F82400184630BD5A680AB11346FBE773
:102D0000C2681268D9680968914203DD1B68002B0C
:102D1000F8D1DDE709D1818A012906D1196821B1ED
:102D20000B46C96809688A42F8DD5A6812B110601A
:102D3000426001E045F824005860984208BF002333
:102D40000360002030BD00BF18E001201CE001201E
:102D500010B520B10468FFF7B9FF2046F9E710BDB0
:102D600081690A4A52F821309842036804D142F836
:102D700021300BB100225A60426802B1136003682F
:102D800003B15A6000230360436070471CE00120D8
:102D900000207047012809DC054B53F8200020B1C2
:102DA000C3681B681BB10068F9E7704700207047D3
:102DB0001CE001202DE9F3410E46174698460546D2
:102DC00070B1FFF7A9FD044602A8236840F8044D3E
:102DD0001C68FFF713FE43463A4631462846A04793
:102DE00002B0BDE8F08100002DE9F84305460EF081
:102DF0007FFADFF85880DFF8589005440EF078FA33
:102E00002E1A002E1FDD00F0D3FCD8F800309E42B1
:102E1000A8BF1E4600F0E0FED9F80040FFF774FDA1
:102E200027461FB103F0D6FF013FFAE730460EF008
:102E300055FA1CB100F0D0FE013CFAE7FFF7D6FDD1
:102E400003F0C8FFDAE7BDE8F88300BFF000002018
:102E50008CBD01202DE9F04F054685B0002800F01B
:102E60008480434C00F0B8FE00F0A6FD23680746BE
:102E7000B3F9228000F0F0FD2268938C86B29B1B90
:102E80009384A1462B78002B61D047F6FF7128462A
:102E900004F066FF01468246284604F031FF2268AE
:102EA000938D03F00303012B04D0022B04D190FB7C
:102EB000F3F302E0034600E00023518CCB1A9BB2EF
:102EC00019B21FFA80FB5184ADF80810B2F9242022
:102ED000ADF80A200BF1FF310B44ADF80C30013A8C
:102EE000BBB21A44ADF80E20514602AA28460193FF
:102EF00004F0C8F92268BDF80A10918428465146AA
:102F000003F052FE2A5C019B0A2A05EB000E01D059
:102F10000D2A12D12268918D01F003010139012996
:102F20008ABF118CA2F8228051849EF800100A29D1
:102F30000AD1918C0B44938406E0BDF80800D9F8BF
:102F400000308344A3F822B09EF8003053B92368C0
:102F50009A8C16449A8D9E8422F003029A8503F07F
:102F600039FF02E00EF101058CE705B0BDE8F08FF6
:102F700090CD012070B50E461546044600F02CFE9B
:102F8000054B1B6820465E849D84FFF763FFBDE808
:102F9000704003F01FBF00BF90CD012047F6FF73C4
:102FA000AFF300802DE9F3410C46174698460646DC
:102FB000E0B100F011FE6CB1204607F07BFD054644
:102FC00048B102462146684604F032FF684607F0E1
:102FD00071FD00E0254643463A462146304604F05E
:102FE000A5F9284607F066FD03F0F4FE02B0BDE83F
:102FF000F0812DE9F04F8BB00D461746039306463E
:10300000002800F09A8000F0E7FDB5F90030B5F92E
:1030100004900193C3EB09030133B5F90240B5F9FC
:1030200006B0029300F0C8FC17F00C0882461ED0D0
:10303000039A0299304603F0D7FEB8F1080F05D085
:10304000B8F10C0F09D0B8F1040F10D10BF1010445
:1030500010FB0AF0201A04B209E0C4EB0B030133A1
:1030600000FB1A30022390FBF3F0044424B22846FC
:1030700007F020FD804688B1BDF80430ADF8183067
:103080000246294606A8ADF81A40ADF81C90ADF8E6
:103090001EB004F0CDFE06A807F00CFD1FFA8AF35F
:1030A0000493013B059307F00307039A0299304606
:1030B00005F09CF8BDF80430ADF82030059BADF864
:1030C00022401FFA84FB5B44014682463046ADF83D
:1030D0002490ADF8263004F013FE012F11D0022FFA
:1030E00004D09FB92B88ADF820300FE0B5F900204F
:1030F000B5F904309B1A181A013090FBF7F0104410
:1031000002E0AB880133181AADF82000304608AA57
:10311000514604F0B7F83046039A029905F05CF87E
:10312000049B064403EB0B04337824B2002BBCD180
:10313000404607F0BFFC03F04DFE0BB0BDE8F08F3A
:1031400073B5064615460C4600F046FD114B1B684C
:10315000DA6C1B6D1D443388ADF802501444013BFA
:103160002344ADF804307388ADF80040013B2B4494
:103170006846ADF8063007F0D3FE18B903F02AFE12
:1031800002B070BD2A4621463046FFF789F807F0A5
:10319000CFFDF2E790CD012013B50A4601466846FF
:1031A00004F078FF00F018FD234BBDF802101A68F8
:1031B000BDF80030B2F84C40B2F85000BDF8042021
:1031C0002344ADF80030BDF80630014403442244E6
:1031D0006846ADF80210ADF80420ADF8063007F0EF
:1031E0009FFE18B903F0F6FD02B010BDBDF9004016
:1031F000BDF90430BDF902109C4209DC204605F0FF
:1032000013FA2046BDF9061005F00EFA0234EFE776
:103210000C46BDF906309C420BDC2146BDF900008E
:1032200005F002FA2146BDF9040005F0FDF902346B
:10323000EFE707F07DFDD4E790CD01202DE9F047C1
:1032400088B0044699468A46904600F0C5FC174B64
:103250001D68EB6C286D1C4400EB0A058144984402
:1032600006A8ADF81840ADF81C80ADF81A50ADF8BE
:103270001E9007F055FE20B903F0ACFD08B0BDE884
:10328000F0870B4E0127129B0293119B0193109B19
:10329000009342464B4629462046049703960AF07F
:1032A000A9FA07F045FD0028EDD1E5E790CD012012
:1032B000D98500082DE9F04387B004469046994629
:1032C0000D4600F089FC164B1B68DA6C1B6D14442C
:1032D0001D449044994404A8ADF81040ADF8148002
:1032E000ADF81250ADF8169007F01AFE20B903F0B1
:1032F00071FD07B0BDE8F0830A4E01270F9B0193D3
:103300000E9B009342464B46294620460397029661
:103310000AF0A6F907F00CFD0028EFD1E7E700BF9F
:1033200090CD0120D98500082DE9F341144F804646
:1033300016460C4600F050FC3D682A6DEB6C08EB1D
:1033400002051C441E4468462BB2ADF80040ADF89F
:103350000460ADF80230ADF8063007F0E1FD20B9A9
:1033600003F038FD02B0BDE8F0813B685B6E324689
:103370001B6829462046984707F0DAFCEFE700BFB4
:1033800090CD012073B5124E04460D4600F024FC8A
:103390003368DA6C1B6D14441D4423B2ADF804305D
:1033A000ADF8003068462BB2ADF80630ADF802300B
:1033B00007F0B6FD18B903F00DFD02B070BD33681B
:1033C0005B6E29465B682046984707F0B1FCF1E741
:1033D00090CD01202DE9F74306461F4688469146C9
:1033E00000F0FAFB1E4B1C68206DE56C247E013C4E
:1033F000A4B22E44331B4D4480440744ADF8003042
:103400006319ADF804306846C4EB08033C44ADF8DA
:103410000230ADF8064007F083FD20B903F0DAFC76
:1034200003B0BDE8F08308F1010407F1FF392A4633
:103430004146304605F0D0F82A463946304605F078
:10344000CBF84A462146304605F01EF94A46214649
:10345000284605F019F907F06BFC0028E7D1DDE7F5
:1034600090CD01202DE9F04F93B080461D9D1C9C0E
:10347000012D0F461646994603D1009400F0B6F888
:10348000AFE000F0A9FB584B1B68DA6C1B6D08EB32
:10349000020B07EB030A06EB020809EB030510A871
:1034A000ADF840B0ADF84480ADF842A0ADF846505C
:1034B00007F036FD10B903F08DFC92E06300059330
:1034C00004FB04F309931D9BE31A06935B430A93E1
:1034D000CAEB050301330D93CBEB08030E931D9B41
:1034E000002B78DD0D9B059A934274DB0E9B013314
:1034F0009A4270DC04EB0A03049304EB0B030B9376
:103500002B1B2746CDF80CA00C93039B049A9342E7
:103510003ADA099B07FB07F6981B04F0CBFE069BE3
:10352000BB42814606DD0A9B981B04F0C3FEC0EB3C
:10353000090600E006460B9B0399C9EB03039A19A1
:10354000013A184607920F9305F046F80C9B079A2C
:103550003B44194608930F9B184605F03DF8C4EB11
:1035600008029144C6EB090601364A4603993046E3
:1035700005F032F84A460899304605F02DF8039BCD
:1035800001330393013FC0E71D9B04EB0B06C4EB23
:10359000080753443046013B3A46514605F09EF831
:1035A0001D9BE91A30462B463A46013105F096F844
:1035B0001D9B04992E1B03EB0B02013A3346584620
:1035C00005F08CF81D9B0499C3EB08004246334676
:1035D000013005F083F807F0ABFB00287FF47FAFE4
:1035E00069E713B0BDE8F08F90CD01202DE9F04FD1
:1035F0008FB082461E4689469046189C00F0ECFA31
:10360000564B1F68FD6C386D05EB0A03019300EB08
:103610000903029305EB08030393BDF80430ADF8EA
:103620003030BDF80C30ADF834300644BDF8083009
:10363000ADF832300CA8ADF8366007F071FC20B957
:1036400003F0C8FB0FB0BDE8F08F6300059304FBE7
:1036500004F30893029B2344069301330793029BD0
:10366000059AF31A0133934273DB019A039B9B1A69
:10367000059A01339A426CDC019B029F2344099313
:10368000039B1B1BA1464FF0FF350A93069B9F42ED
:1036900043DC089B09FB193004F00CFE099B0490E5
:1036A000C0EB030B451B0A9BC4EB0608012D03EB83
:1036B000000AC8441CDD0BEB0503013BC5EB0A0502
:1036C0001A463946584601350B9304F085FF524699
:1036D0003946284604F080FF0B9B41461A4658465F
:1036E00004F07AFF52464146284604F075FF0FE089
:1036F0003946584604F098FF3946504604F094FF86
:103700004146584604F090FF4146504604F08CFF75
:10371000013709F1FF39049DB8E7019B02991D1992
:10372000039B1F1B0135013F28463A4604F054FF16
:103730002846351B3A463146013D04F04DFF2A46E6
:103740000799019804F0A0FF2A460799039804F00E
:103750009BFF07F0EDFA002881D171E790CD0120A1
:1037600073B5044616460D4600F036FA0F4B1A683C
:10377000D36C126D1C4423B2154416446846ADF850
:103780000030ADF80430ADF80250ADF8066007F037
:10379000C7FB18B903F01EFB02B070BD32462946C4
:1037A000204604F071FF07F0C3FAF2E790CD012044
:1037B00010B5002400F006F808B10124FAE720460D
:1037C00010BD00000C4B10B51C681CB1A047041CB8
:1037D00018BF012406F0B8F9084B1B68002818BF71
:1037E00001241BB19847002818BF0124044B1B6813
:1037F00003B19847204610BD4CBE012034E00120A3
:1038000048BE0120F7B5044616461F460D4600F097
:10381000E3F9104B1B68DA6C1B6D14441D4416440D
:103820001F446846ADF80040ADF80460ADF80250A2
:10383000ADF8067007F074FB18B903F0CBFA03B0CB
:10384000F0BD3B4632462946204604F047FF07F0CC
:103850006FFAF1E790CD0120B0F90630B0F90420FD
:10386000B0F90210B0F90000FFF7CCBF13B50B465A
:1038700030B1C488818800928268204600F002F846
:1038800002B010BD30B50428039D27D010DC0128FC
:1038900018D0022838D1694302EB93026FEA430043
:1038A000525C00F0060022FA00F000F0030030BD88
:1038B00010281DD0202821D0082825D105FB012162
:1038C000C85C30BD694302EBD302D843525C00F0C0
:1038D000070022FA00F000F0010030BD02EB5302B5
:1038E0006943DB07505C4CBF00F00F00000930BD9E
:1038F0004C1005FB043332F8130030BD8C1005FB6F
:10390000043352F8230030BD002030BD034B53F880
:103910002000C36808219B6A184700BF1CE00120F3
:1039200010B500F059F904F009FF04F0FBFF04465C
:1039300003F050FA204610BD10B5044600F04CF9D3
:10394000054B1B68DB6900215B68204698470446ED
:1039500003F040FA204610BD90CD012038B5044652
:103960000D4600F039F9064B1B68DB6929465B6898
:1039700020469847044603F02DFA204638BD00BF84
:1039800090CD012008B106F039B9704710B500F0AC
:1039900023F904F0DBFE04F0C5FF044603F01AFA35
:1039A000204610BD01289ABF024B53F8200000208A
:1039B000704700BF90DE012010B500F00DF9044BF8
:1039C0001B68DB695C7E03F005FA204610BD00BF72
:1039D00090CD012070B504460E46154600F0FCF867
:1039E00020462A46314604F01BFF044610B100234E
:1039F00033602B6003F0EEF9204670BD38B5054604
:103A00000C4600F0E9F8064BB3F900302B60054B8B
:103A1000B3F900302360BDE8384003F0DBB900BFE4
:103A200010E0012036BE012010B5044604F0B4F9C0
:103A300001462046BDE8104004F062B90DF058BCC4
:103A400004483523037034238370C37061230371EA
:103A5000704700BFE000002010B500F0BDF80C4B2F
:103A60001A68938D03F00C03082B07D00C2B05D09C
:103A7000042B07D1D3691C7E013C04E0D3691C7E72
:103A8000640800E0002403F0A5F9204610BD00BF43
:103A900090CD0120027EC07E50437047024B53F808
:103AA00020301B69186870471CE00120024B53F856
:103AB00020301B69586870471CE0012038B5054666
:103AC0000C4600F089F8044B1B685D849C8403F06D
:103AD00081F9002038BD00BF90CD012090B583B0A2
:103AE00000AF344A334B1B6823F001031360324BA1
:103AF00001221A6000BF304B1B68002BFBD12F4BFB
:103B00002F4A1A602D4B1B682E4A934200D0FEE7C5
:103B100003F09CFA2C4B2E221A700DF0EDFB2B4873
:103B20000BF0A2F80DF040F8786004F0A3FE034615
:103B3000002B0CBF01230023DCB204F0AFFE0346D0
:103B4000002B0CBF01230023DBB22343DBB2002B8D
:103B500009D004F098FE044604F0A9FE0346194675
:103B6000204605F0B3F80021002002F0AFFB06F07C
:103B70005BFBFEF77FFD164B1B68002B12D00DE0A0
:103B8000134B1B681B68002B03D0114B1B681B6871
:103B900098470F4B1B685B680D4A13600C4B1B6802
:103BA000002BEDD10B4B01221A707B6818460C37A5
:103BB000BD4690BD002000E00830024000300240C9
:103BC000C2A507F4CDB5E8B534BE012070DD0120F3
:103BD000E8DD01203CBE01202DE9F041194C63686D
:103BE00023B10DF081FBA368984204D00DF09EFB39
:103BF0000DF07AFBA0606368DFF848800133012B89
:103C000063601CD10AF0E0FE0F4A536898420746F1
:103C1000164614D0002B11DBD8F800507C2404FB8E
:103C20000355FFF7B5F8D8F80030A86704FB073450
:103C3000064BA06F221D1A60FFF78AF87760BDE877
:103C4000F08100BF88BD01203001002090CD01200F
:103C500013B5044618B9104B1B681C6ED4B1FFF79E
:103C6000BBFF2046FEF758FE02AB446943F8080D3F
:103C70001846FEF7C3FE5CB12046FEF74DFE02ACCF
:103C8000836844F8040D9B6898472046FEF7B6FE0B
:103C900003F0A0F802B010BD90CD0120014A1146FA
:103CA00000F002B801F0FFFF2DE9F0430C4685B0AB
:103CB00015460646002845D0FFF78EFF002002F08B
:103CC000CBFA224B1B6807463046D3F86080FEF7DC
:103CD00023FE03680190986902F074FA019A1C4B64
:103CE0009C42138904BFB2F90440B2F90650ADF802
:103CF0000840013B2344ADF80C305389ADF80A501D
:103D0000013B2B448146ADF80E3005F0E7FC01A8DD
:103D1000FEF774FE02A807F003F958B9484602F00E
:103D200051FA404600F0C8FA384602F095FA03F01E
:103D300051F807E02A462146304600F09BFC06F089
:103D4000F7FFEAE705B0BDE8F08300BF90CD0120A2
:103D500001F0FFFF2DE9FF470C9D07469A46884674
:103D60009146FFF739FF194B1B68587C184B53F8E5
:103D70002040E3681B68042B06D02468002CF8D18F
:103D8000FFF708F80446E8B1E3680121DB6A204642
:103D90009847064698B12469A3689847013008BF40
:103DA0000C4C029408BF45F001058DE860005346B5
:103DB0004A464146384600F017FB044600E00446F8
:103DC00003F008F8204604B0BDE8F08790CD01204C
:103DD0001CE00120BCB806082DE9FF410C9C0546FB
:103DE0000E46174698467CB1FFF7F6FE0B9B0193F3
:103DF0000A9B029400933A4643463146284600F017
:103E0000F3FA044602F0E6FF204604B0BDE8F08174
:103E100037B50446F0B1FFF7DFFE0F4B1B681B6E92
:103E20009C4201D102F0C0F92046FEF775FD0190D9
:103E3000406908B102F0B4FF02AD55F8043D1868BE
:103E4000FEF742FF2846FEF7D9FD2046FEF7A4FC08
:103E500002F0C0FF03B030BD90CD01202DE9F04F3E
:103E600087B00646039298460291FFF7B5FE544B81
:103E70001A68547C534A1257012A20469B4606DD95
:103E800004F0FEFC8146204604F00EFD05E004F03F
:103E9000E0FC8146204604F0E2FC044636B305A966
:103EA00004A8FFF7ABFD049A059BB6F90070B6F9BC
:103EB0000250914409F1FF321C44B6F90490B6F95E
:103EC000063027EAE77725EAE575013C4A45D4BF85
:103ED000C7EB0209C7EB09099C42D4BFC5EB040438
:103EE000C5EB030409F10109013401E03546374609
:103EF000B8F1000F01D1C4F10008B9F1000F01DDE4
:103F0000002C03DC02F066FF002055E0109B0093BC
:103F10004A46434629463846FFF71CFF064630B955
:103F20000398029B984702F055FF012044E000F0FF
:103F30007DF88442804606D0DBF80030986C10B1E2
:103F4000322107F0A4FB304600F0B6F9A2464FF04C
:103F50000009D04503DD5146304600F091F8B9F133
:103F6000000F08D0304605EB0902394600F0CEF9C3
:103F70003046FFF76DFE029B03989847124B1B6873
:103F80000BB1FF2098473046C144FFF787FE4C45F0
:103F9000C8EB0A0ADDDC3046FFF73AFF002000F0EC
:103FA0008BF94445AED0DBF80030986C0028A9D0DE
:103FB000332107F06CFBA5E707B0BDE8F08F00BF29
:103FC00090CD01201AE00120D4DE012037B504464F
:103FD00098B1FFF701FE2046FEF79EFC036802AD94
:103FE0001B6945F8040D9B68984705F03EF80446A8
:103FF0002846FEF703FD02F0EDFE204603B030BD7B
:1040000013B5044670B1FFF7E7FD2046FEF784FCC8
:1040100002AB00F1180443F8040D1846FEF7EEFC5D
:1040200002F0D8FE204602B010BD000013B50446D1
:10403000FFF7D2FD1CB90A4B1B681C6E54B1204619
:10404000FEF76AFC02ABB0F90A4043F8040D1846CB
:10405000FEF7D4FC02F0BEFE204602B010BD00BF49
:1040600090CD012038B505460524284607F03EFFCF
:1040700010B9013CF9D138BDBDE8384000F078B93D
:1040800037B50D46044618B90A4B1B681C6E7CB147
:10409000FFF7A2FD2046FEF73FFCB0F90A30019081
:1040A000AB42C8BF458101A8FEF7A8FC02F092FE12
:1040B00003B030BD90CD01202DE9F04F93B00546FF
:1040C0000C46069299461D9EFFF786FD214628461E
:1040D00007F06CFD002840F0EA80002E00F0E78039
:1040E0002846FEF719FC0C902046FEF715FC0D90B3
:1040F0002846FFF785FF09902046FFF781FF4FF024
:104100007A7393FBF6F30B930C9B0A901C98B3F90C
:104110000870B3F90A8003F0AEF805901C9804F01B
:1041200019F8059B02964FF47A7A0AFB03F40AFB0E
:1041300000F5FB0395FBF6F505FB08F194FBF6F49F
:10414000024603EB610104FB07F04FEA650EA1EBA9
:1041500060014FEA640BCEEB01010698594405FB60
:10416000091104FB1011079104FB08FC4FEAC83148
:1041700005FB07F0A1EB6C0CACEB600CDC440CEB2A
:104180000E0B069804FB19BB05FB10BB059802FB40
:1041900006FE70439EFBFAFE90FBFAFA0AFB08F05B
:1041A000A1EB60010EFB07F00EFB08FEA3EB6E0E09
:1041B000069E059B0AFB07FA01EB6001AEEB6A0065
:1041C0000DF1380E8DE8800101EB094100EB06404E
:1041D000CDF80CE00AF03EFB119B0D9A0593059972
:1041E000B2F90A30109FB2F90860DDF83C909942AC
:1041F000A4BF03F1FF3305930E99079B27EAE777E6
:1042000021EAE17807FB153308FB043307FB04BB05
:10421000079308FB05B3B14508930A9BA8BF06F1B5
:10422000FF397E4303EB86064FEA88030A93059B1A
:104230009F4236DC0A9BDDF820B0DDF81CA0CDF8EB
:1042400018801E44069B4B4519DC0B9B009352467D
:104250005B4609990C980AF037F9030EFF2B01D140
:10426000306005E0DAB21BB131680AF003FF30605C
:10427000069B0133A244AB4404360693E2E70D9B50
:10428000B3F90830C9EB030303F18043013B06EBAC
:104290008306079B5B1B0793089B23440893013706
:1042A000C5E70CA8FEF7AAFB0DA8FEF7A7FB02F0D6
:1042B00091FD13B0BDE8F08FF7B50646FFF78CFC13
:1042C000114B1A681C46176E16B901F06DFF16E007
:1042D0000FB101F069FF05F045FB3046FEF71CFB0E
:1042E00002AD236845F8040D1E660068FEF7EEFC7B
:1042F0002846FEF783FB04F07BFD04F0C7FC02F0C8
:1043000069FD384603B0F0BD90CD012073B50D4670
:104310001446064618B9154B1B681E6E26B3FFF7E8
:104320005BFC3046FEF7F8FA24B22DB2C4808580DB
:10433000009004F0ABFC009B586980B1FEF7ECFAEA
:10434000009B0190B3F90820B3F90A308280C38042
:1043500012B10BB10580448001A8FEF74FFB6846FF
:10436000FEF74CFB02F036FD02B070BD90CD01208F
:10437000014A114600F002B801F0FFFF7FB50C467C
:104380001546064660B3FFF727FC3046FEF7C4FA31
:10439000144B01909C42038904BFB0F90440B0F96A
:1043A0000650ADF80840013B2344ADF80C3043897A
:1043B000ADF80A50013B2B4401A8ADF80E30FEF7D2
:1043C0001DFB02A806F0ACFD10B902F003FD07E0EA
:1043D0002A462146304600F031F906F0A9FCF3E701
:1043E00004B070BD01F0FFFF2DE9F04F464D87B0DE
:1043F0001C462B68109F5B7C81468A46904612992A
:1044000011980022FEF726FC0395064680B3036947
:104410009B68984704F029FE00FB08F50290FEF720
:10442000BBFA17F0010708BF042305F1070504BF15
:1044300090FBF3F000EB4000002C4FEAD50544DC84
:104440001DB11838B0FBF5F000E028466442844204
:10445000A8BF044677B900972346424651464846CE
:1044600002F020FC002C834639DC3046FEF72CFCA1
:10447000002046E0002CF8DD05FB04F01830FEF7C4
:1044800057F907460028F0D04FF0000B3846FEF7EA
:1044900043FA034606A8029A40F8043DA3F80490A4
:1044A0001E60A3F806A0A3F808805C81DD601A6195
:1044B000C3F814B0FEF7A2FA129B3361039BB760F6
:1044C0001B685B7CB36138461BE0002FD4D100979A
:1044D000234642465146484602F0E4FB834605FB2C
:1044E00004F01830FEF732F907460028CED13046E6
:1044F000FEF7EAFBBBF1000FBAD05846FEF74CF9C5
:10450000E1E707B0BDE8F08F90CD01202DE9F0473D
:10451000454D464BD5F800E0454E9EF81140D6F883
:1045200000C053F824408CB00746059104922369DB
:10453000BCF1000F12D0E268DEF86010126819B901
:10454000B2FA82F2520905E0072A04D0394A991AD0
:104550004A424A412AB9049A059938460CF07AF938
:104560005FE03846FEF7D8F903460CA8B3F90840D7
:1045700040F8083DB3F90A90D3F80C80FEF73EFAF4
:1045800008AB06AA05A9204607F020FB069B002BD6
:1045900047DD09AB07AA04A9484607F039FB079B8A
:1045A000002B3EDD3846FFF72BFD099B089F03FBE0
:1045B00004772B6800EB8707186E28B3DDF814909A
:1045C000049DFEF7A9F904460CA8B4F90630D4F806
:1045D0000CA040F8044DED1AB4F90430C3EB0909FE
:1045E0004FEA89090AFB059518352C44FEF706FAAF
:1045F000BCB1CDF80480CDF800A03568079B069AC1
:1046000039462046A8470CE0587C079B0193069B3F
:104610000093A400084B02941C68049A05993B4639
:10462000A0470CB0BDE8F08790CD01201CE0012030
:1046300024E00120BCB8060840BE01202DE9F3416A
:104640000F4690460646FEF767F9036802ACDB6842
:1046500044F8040D5B6A1621002098470546204661
:10466000FEF7CCF91DB1424639463046A84702B0A4
:10467000BDE8F0812DE9F04F9BB005460891099205
:10468000002800F09983FEF747F91AAB446943F814
:104690001C0D1846FEF7B2F92846FFF797FC0828CC
:1046A0000746A54E02DD002C00F0C981012300273A
:1046B000284619930D931897FEF72EF90268B0F962
:1046C0000A3012690E930DF168095368326849F88F
:1046D000140D0469D0F81480D0F80CA0B0F908B01B
:1046E000507C0C93FFF712F932680B90507CFFF767
:1046F000DDF90A904846FEF781F9082C0A9A0D9BCD
:1047000004D9102C8CBF0423022305E0012C03D113
:1047100018AB0D940A9301E00D930A970C9B9342FA
:1047200000F0DF803368587CFFF7B8F90F904FEA4C
:104730008B00FDF7FDFF1090002800F03D83284618
:10474000FFF75EFC0546B8F1000F00F0B980404667
:10475000FEF7E2F805EB0A0311930023DDF824903D
:1047600016900993119B099ACAEB03070E9B93427B
:1047700040F3A2801698099A0023179383680DF1DD
:104780005C085B69414698478345054628D11098E7
:10479000FEF7C2F80F9B0193082C0C9B1490014666
:1047A00000935A460B9B384602D907F0D8FA01E02D
:1047B00007F0F4FA0A9B05931AAD089855F8183DCE
:1047C0000493002303930B9B029301230193009313
:1047D0005A46494603F0EEFD2846FEF70FF962E01F
:1047E000012C02D04FF0010857E0002D5BD0179844
:1047F000089ECDF80CA000F0070306930A9B0593D2
:10480000082390FBF3F33B44049301232A460293CD
:10481000019300934946304404F0FCFA179B169824
:10482000099A1D44836817955B6941469847054678
:10483000DBE71098FEF770F80F9B149001460D9E71
:1048400017980193082C0C9B00932A460B9B00FBA6
:10485000067025D907F083FA0A9B0593149B0493ED
:104860001798089ECDF80480002303930B9B0293B6
:104870002A46012349463044CDF8008003F09AFDD2
:1048800014A8FEF7BBF8179B1698099A1D44836875
:1048900017955B6917A998470546002DC9D102E015
:1048A00007F07CFAD8E7099B01330993119B534425
:1048B000119309F1010955E716A8FEF79FF80EE0DC
:1048C0000A9B05930123049001930093CDF80CA05B
:1048D00002940E9B099908985A4603F06BFD1098B4
:1048E00068E22846FFF78CFB0746B8F1000F00F09E
:1048F0009A804046FEF710F8002516900E9BAB42BA
:1049000040F38D8016980023179383680DF15C089F
:104910005B692A46414698478345064626D12E467E
:104920001698836806F101095B694A464146984733
:10493000834503D14E46F3E790CD01200A9B0999A8
:104940000593C5EB0608012308F1010804970193BC
:1049500000932944CDF80CA0029443465A46089887
:1049600003F028FD0AFB0877354656E0012C099B29
:1049700004D02B440B934FF001092BE003EB050906
:10498000A0462EB3DDF85CE00898CDF80CA00EF040
:10499000070306930A9B059308239EFBF3F33B440E
:1049A00032467044049349460123CDF80880CDF87F
:1049B0000480CDF8008004F02DFA179B16981E4451
:1049C000836817965B692A4617A998470646D8E771
:1049D000574422E0002EFBD00A9BDDF85CE00593F3
:1049E0000D9B08980B99CDF80CA003FB0E73324673
:1049F0007044049302940123CDF80490CDF8009004
:104A000003F0D8FC179B16981E44836817965B69C1
:104A10002A46414698470646DCE701356EE716A868
:104A2000FDF7ECFFC8E10A9B059301230193009376
:104A30000490CDF80CA002940E9B5A463AE028460A
:104A4000FDF76AFF83461AA8BBF90A3040F810BD8B
:104A5000DBF800200B93DBF80C30D2F810800C93BD
:104A6000BBF90840FDF7CAFF3268D8F80490507CC3
:104A7000A14A52F82020166933680A93FEF746FFD0
:104A800008280C9B06D910288CBF4FF0040A4FF061
:104A9000020A01E04FF0010AB04510D1039301234F
:104AA00000220BF11800019300930B9B05920490D8
:104AB000029722460999089803F07CFC7CE1202F9C
:104AC00040F0A2800AFB04F0FDF732FE0D900028B2
:104AD00000F07281FDF720FF18902846FDF71CFFBB
:104AE000169033694FEACA0200F118054FEA840BA9
:104AF0000C9273B3DDF824804FF00109BAF1020F74
:104B000005D0BAF1040F02D0BAF1010F06D1284640
:104B10003769189953462246B8475D440023189ACE
:104B2000059303930C9B0492029322460123CDF834
:104B30000490CDF800904146089803F03BFC0B9B95
:104B4000099A08F1010713449F4200F02C81B846EE
:104B5000D4E7099F1E460B9B3B444FF00109099384
:104B6000BAF1020FDDF8608016D0BAF1040F24D03C
:104B7000BAF1010F30D143462A4652F8040B0E9386
:104B80000A9B0B9298470E9B0B9A03F8010BE11AB4
:104B900018EB010FF1D11EE043462A46A04652F819
:104BA000040B0E930A9B0B9298470E9B0B9A23F8CB
:104BB000020BB8F10108F2D10DE02A46234652F863
:104BC000040B0E930A9B0B9298470E9B48F8040B1C
:104BD000013B0B9AF3D15D44189B04930C9B029309
:104BE000059601230396CDF80490CDF80090224657
:104BF0003946089803F0DEFB099B07F1010843459D
:104C000000F0D1804746ABE7102F40F0D58004FB81
:104C10000AF0FDF78DFD0D90002800F0CD80FDF726
:104C20007BFE18902846FDF777FE1690336900F159
:104C3000180713B1D8F8143053B94FEACA03099DC5
:104C40000C930B9B2B4466004FF0000B099383E001
:104C5000B0F908008000FDF76BFD0C9018B1FDF76E
:104C60005BFE179001E00C9B1793179B002B00F045
:104C70009A8063000A93DDF824B04FEACA030E93CA
:104C8000BAF1020FDDF8609006D0BAF1040F05D03A
:104C9000BAF1010F11D101E0534600E0022338467A
:104CA00022461799D8F81450A84753462246494639
:104CB00017983569A8470A9B1F440023059303935F
:104CC0000E9B189A029301230492019300932246AB
:104CD0005946089803F06EFB0B9B099A0BF10109EA
:104CE0001344994501D0CB46CAE717A8FDF786FEC5
:104CF0000C98FDF751FD56E01CE00120BAF1040FBD
:104D000041D0BAF1010F11D143463A4632F8020BB5
:104D10000B920E93C8470A9B98470E9B0B9A03F879
:104D2000010BE11A18EB010FF0D13744189B0493E3
:104D30000C9B0293012301930093CDF814B0CDF89E
:104D40000CB022462946089803F034FB099B05F174
:104D50000108434527D04546BAF1020FDDF86080CF
:104D6000CCD143463A46A04632F8020B0B920E9342
:104D7000C8470A9B98470E9B0B9A23F8020BB8F181
:104D80000108F1D1D1E73A46234632F8020B0B92E3
:104D90000E93C8470A9B98470E9B48F8040B013BAB
:104DA0000B9AF2D1C1E716A8FDF728FE18A8FDF767
:104DB00025FE0D98FDF7F0FC1BB0BDE8F08F00BF9D
:104DC00010B538B309B30AB3B2F90040B1F90030F5
:104DD000A342A8BF23460380B2F90240B1F90230D2
:104DE000A342A8BF23464380B2F90440B1F904307E
:104DF000B2F90620A342B8BF23468380B1F906303A
:104E00009342B8BF1346C38010BD11460B680360C0
:104E10004B68436010BD68B1038889B20B440380BE
:104E2000838819444388818092B213444380C388A5
:104E30001A44C28070470000114A136851688B42BF
:104E400070B5044616460F4D09D1AB4206BF3C3340
:104E500093E8070013E9070084E807000AE093E8F5
:104E6000070084E8070005F13C02934218BF03F1F4
:104E70000C053560207A003018BF012070BD00BFDE
:104E800050010020BCBD0120024B09CBC31A58427F
:104E90005841704750010020F0B5274C236D85B074
:104EA00006462BB92046254B40F8503F03F000F949
:104EB000234B244A1A6096E80700E36C01AD85E8AD
:104EC00007000BB1284698471F4EDFF880E037688F
:104ED00073689F4217D0A34214BFA3F10C0272461D
:104EE0009DF80C10107A88420DD197420BD0A24247
:104EF00014BF0C3A154A127A8A4204D1A34214BF55
:104F00000C3B124B736095E807007368734583E8A8
:104F100007000CBF084B0C339F42736004D17745E8
:104F200014BF0C37044F3760A36C0BB12846984769
:104F300001F01AFA05B0F0BDBCBD0120B9F20008BD
:104F40008CBE0120519E000850010020F8BD0120B8
:104F500010B5FEF741FE0B4A136851688B420BD027
:104F6000094CA34293E8030014BF0833503B13607D
:104F7000012405F0D5FA00E0002401F02BFF2046C3
:104F800010BD00BFE800002060DE01202DE9F04FD9
:104F90008DB00446049115461E46FEF71DFEFDF732
:104FA000B3FC002C00F00781282E00F20481032DB1
:104FB00000F3018118200AF056F88346002800F01B
:104FC000FA8000238360C360066045600361237834
:104FD000002B00F0F4802378002B00F0F4800221F5
:104FE000204609F085FD0346E8BBDBF800100AF017
:104FF00051FD064620460378303B092B00F10102A3
:1050000001D81046F7E70221051B09F071FD0228BF
:1050100001460DD128460AF07DFF30440C306E1C4D
:10502000A0EBC600002815DD0A462046594623E0BD
:1050300001280FD128460AF06DFF0146681C0AF0CE
:105040005FFF0E440A36301A002803DD022259465B
:1050500020460EE023462A46002158460AF02EFD3F
:1050600000280CDAABE0012B4FF002025946204633
:1050700002D108F08BFD01E008F024FD0546002D6B
:1050800000F0A180C0F29B802C44A4E7029B25EA9B
:10509000E57503EB0517039B05FB0434059B06FB35
:1050A0000535009B002B40F054830023C9F82030C5
:1050B000B9F1000F00F08181D9F800300093009A17
:1050C00007991C2303FB0213D3F8FCA0531E272BC4
:1050D00000F27485BA4B03EB82035E68002E00F089
:1050E0006B83009BB64C04EB83046368002B00F0D9
:1050F00065850AFB0AF31846019309F0B4FF0746D9
:10510000002800F05B85AF4B019A1B6861689847E7
:10511000182009F0A8FF0646002800F054850AF17F
:10512000FF338360C3604FF0FF33C0F800A04760D7
:10513000036143614FF00008D9F80420D9F8081042
:105140001144884580F26C84D9F820309A4240F3AB
:105150004684D9F81C00D9F81820016893FBF2F4B2
:105160008C42A8BFD9F8141002FB1432A8BF521801
:1051700000EB02125268155D0133C9F82030082196
:10518000802330460391029308F0D6FE029B0399D8
:105190000446002840F0368448460BF045F9304676
:1051A00009F0D0F8384609F0CDF858460AF09BFCD3
:1051B000002C40F00D814FF0000800F008BD58466B
:1051C0000AF091FCF7E7DBF80030282B00F2F580BD
:1051D000DBF80430032B00F3F080242009F043FFB8
:1051E0008146002800F0E980DBF81030B3B1012BD4
:1051F00003D100221146062006E0022B40F0D382A4
:105200000BF11402012107200AF096FE002800F09D
:10521000CA82DBF808300361CBF80800DBF80830FD
:1052200000930025002D14BF2B460123DDF800A0BC
:105230000193002402274FF00D08BAF1000F52D05D
:10524000DAF80060072E31D8DFE806F0060B1115FA
:10525000481C042E042242E0DAF804000AF05AFE48
:1052600003E0DAF804000AF04BFE024621E0DAF827
:105270000420D2001DE0DAF8042092FBF7F208FBCC
:1052800002F216E0DAF8081000230A1D12F8010DE8
:10529000914240EA0323F9D17F2B09D9B3F5804F1E
:1052A00034BF14221C2204E00C2218E0002216E075
:1052B0000C22032E04D8019930460AF0EBFB00E0E3
:1052C0000020012303FA00F1DAF8043004300B4423
:1052D000013B93FBF1F300FB032200E01422144492
:1052E000DAF810A0A9E7DBF80410082307348900D6
:1052F00094FBF3F41C200123334A00FB03225618CD
:105300005268F668921B94422F4E40F3038101339A
:10531000292BF1D14FF0FF33DBF800209A4203DA5A
:10532000282B98BFCBF800301C27DBF8085000244E
:10533000002D00F0F480DBF8001028460AF0E4FBB2
:105340000028C0F2308204442D69F1E706F0F1FB39
:105350000546002800F02782DBF80840002C40F0CA
:10536000F8801A49DBF80030DBF80420D5F800A0FB
:105370001C2000FB0310C3EBC303134401EB8303A6
:10538000D0F80061D3F80831C3EB06084FEAC80132
:105390008A4500F3058240F0E5802E68002E40F03B
:1053A0002B810024284606F0CDFBC9F80C40002CC8
:1053B00040F05581484608F0C5FF0024F5E600BFDF
:1053C00040BC0120A4CD0120202F0608242E060871
:1053D000049BA768266803FB07F909F10705082362
:1053E00095FBF3F505FB09F03030FDF7AFF980468A
:1053F000002869D0FDF790FA63684361A368836170
:105400000123C38000F11C03C3600223C36100F1C8
:1054100028031FFA89F943624FF07F430B9000F194
:105420003001A0F80290A0F8009083624FF00009CC
:105430004FF0FF338580816080F82090C362B945CA
:105440003FDA0846B6468022C6EB0E039F4222DDB5
:105450004FF0000C049B9C451ADA9EF800A00378DC
:105460001AF0020F0AF0010A03D0BAF1000F03D0BC
:1054700005E0BAF1000F02D023EA020300E0134373
:105480005208037004BF802201300CF1010CE1E7E7
:105490000EF1010ED8E7002FA8BFF6194FF0010A50
:1054A000049B9A4501EB050307DA2A461846FAF7EA
:1054B00018FF0AF1010A0146F2E7194609F101094C
:1054C000BDE70BA8FDF79AFA206808F03BFF2046DD
:1054D00008F038FFB54C002604F1A005206808F05C
:1054E00031FF44F8046BA542F8D1B14B1C681D464E
:1054F00074B1A068E66A08F025FFE06808F022FFB2
:10550000206908F01FFF204608F01CFF3446EFE733
:105510002C605CE39D42BFF6FFAE1D4682E6DBF8E1
:10552000043007349A00E410012307FB0361881854
:105530004968C068091A8C4203DD0133292BF4D174
:1055400031E1DBF800209A42BFF600AFCBF8003023
:10555000EBE6E168284606F04DFA0028C0F220810B
:105560002469FBE6CAEB0101042904DC2246284633
:1055700006F0AAFA3CE008230AF10B0696FBF3F6C4
:1055800006F0D7FA0746002800F00A812246CAEB47
:10559000C60106F099FA00281DDBC6EB0806002EAE
:1055A0001DDD304609F05FFD8046A0B114F0010F0B
:1055B00014BF1123EC2308F804300134A642F5D1BE
:1055C00042463146384606F04DFA0446404608F059
:1055D000B9FE002C03DA384606F0B4FAE0E03946AA
:1055E000284606F007FA0446384606F0ABFA20468D
:1055F0000028BFF6D2AED3E0F01D082490FBF4F0F3
:1056000009F031FD00283FF4CCAE96FBF4F4696854
:1056100007460B463A1A94420DDD03F1080E0022AC
:1056200013F801CB5200D2B2734542EA0C02F7D113
:1056300007F8012BEEE724EAE47301EBC30116F04F
:1056400007030AD00E46002216F8017B5200D2B2A0
:105650003A43771ABB42F7DC02550446A2E69BE8C0
:105660000C005449079103EB820001EBC000D0F815
:105670007855D0F87C050090C2EBC200034401EBE2
:105680008303D3F808611C2303FB0213D3F8004102
:10569000009BA41BEF1823B994FBF5F496FBF5F6D9
:1056A00004E094FBF7F4631C96FBF7F60193C9F84A
:1056B0000020009B019AC9F81450534304FB0533A2
:1056C00006FB07F0C9F80430C9F8080009F0CBFC64
:1056D000C9F8100020B9D9F80C0008F033FE69E6CB
:1056E000C9F818703801FDF731F8FDF715F9029087
:1056F000C9F81C00002800F06182D9F80C3003932F
:10570000C4F1FF01D9F810300593891B304609F028
:105710001FFB0690002800F05182029FDDF814A0C4
:10572000DDF80C8000239D4207F110077FF7AEAC37
:1057300047F80C8C07E940045246414647F8104CA4
:105740000698089308F0C8FA089BA044B2440133B5
:10575000E9E7019BC3F1FF01891B304609F0F8FA24
:105760008246002800F02A824FF00008009B9845EE
:1057700007F11007BFF699AC019B47F8103C47F8BA
:105780000C4C47F8045C2A46214647F8086C504602
:1057900008F0A2FA019B35441C4408F10108E5E732
:1057A000284606F0CFF90024FFE500BF48BC0120E1
:1057B00040BC0120242E06080AFB0AF5284609F001
:1057C00052FC0446002800F00381A84F2A463B689B
:1057D00031469847AAF107053346324651462046DE
:1057E0000AF008FE2A463346514620460AF002FED9
:1057F0002B4632465146204605FB0AF50AF0FAFDD3
:10580000611923460722C020D8715344013A03F896
:10581000080CC8715144F7D14FEACA06CAEB060812
:10582000A0443B680822C02140469847A6F10800E2
:105830003B680822C02120449847CAEB0503019326
:1058400001983B680822C021201898473B6809222C
:10585000842108EB0A00984706EB0A0008383B68E9
:105860000822842120449847224608238421013BB2
:1058700011725244FBD10835254407238422013B91
:105880002A705544FBD10623063603FB0A432644FF
:1058900007330121AAF10F00CAF1000581425644E5
:1058A00009DA01F0010262F06F02D2B203F8012FAF
:1058B00001317255F2E7009B012B00F084806C4BA4
:1058C000009A069303EBC202D2F8985AD2F89C2AA7
:1058D000B2EB050857BFC5EB0A03022393FBF8F3AD
:1058E000023303FB03F2042A04D0013B2E460127B6
:1058F000059306E02B462A46514620460AF060FDF5
:105900002BE0059B9F420EDA334606225146204685
:105910000AF056FD32460623514620460AF050FD55
:1059200046440137EDE7029500230393039A059B54
:10593000934212DD2F460026059BB342029B07DDF2
:105940003A46514620460AF03BFD47440136F3E70C
:1059500043440293039B0133E7E7009B062B32DDB0
:10596000073B212B9BBF069A02EB83030022D3F84F
:10597000E02B019B0AEB4A00181A1746002319185E
:1059800000260325214407F0010E6EF0770E013D3D
:1059900001F806E04FEA57075644F4D10133062BCD
:1059A000EDD1AAF10C012144CE1C084602F00105FC
:1059B00065F0770500F8015FB0424FEA5202F5D179
:1059C000013B5144F0D1019B234481221A722646A7
:1059D000284B009A03EB82035E60FFF782BB99427B
:1059E0000DDDD9F81810D9F81C009A1A92FBF1F4C1
:1059F00001FB142200EB0212D268FFF7BCBB0025AA
:105A0000FFF7BDBB1D4214BF032202220139027001
:105A10004FEA53037FF4B5AB08F10108FFF78CBBE5
:105A200048460AF001FD124A00991C2303FB01239A
:105A30000025D3F804814FF0020909E0304608F050
:105A40007BFA044600283FF4AAAB80F800900135A9
:105A5000A845F3DC0198DBF8044009F004FB80461C
:105A600050B9304608F06EFC3846A4E4A8CD0120B9
:105A7000242E060840BC01204FEACA030393039A70
:105A80000AF1FF3313440693554B03EB441208927B
:105A9000AAF107020AFB02F2059200246FF000420D
:105AA00080330292A1460993099B424653F829305C
:105AB000394650469847069A089B079008EB020C17
:105AC00053F82930002211461546D8074CBF4FF035
:105AD000850E4FF0840E08EB020048BF0235052901
